{
  "_format": "hh-sol-artifact-1",
  "contractName": "Lottery",
  "sourceName": "contracts/Lottery.sol",
  "abi": [
    {
      "inputs": [
        {
          "internalType": "uint256",
          "name": "_betPrice",
          "type": "uint256"
        },
        {
          "internalType": "uint256",
          "name": "_betFee",
          "type": "uint256"
        },
        {
          "internalType": "string",
          "name": "_tokenName",
          "type": "string"
        },
        {
          "internalType": "string",
          "name": "_tokenSymbol",
          "type": "string"
        }
      ],
      "stateMutability": "nonpayable",
      "type": "constructor"
    },
    {
      "anonymous": false,
      "inputs": [
        {
          "indexed": true,
          "internalType": "address",
          "name": "previousOwner",
          "type": "address"
        },
        {
          "indexed": true,
          "internalType": "address",
          "name": "newOwner",
          "type": "address"
        }
      ],
      "name": "OwnershipTransferred",
      "type": "event"
    },
    {
      "stateMutability": "nonpayable",
      "type": "fallback"
    },
    {
      "inputs": [
        {
          "internalType": "address",
          "name": "",
          "type": "address"
        }
      ],
      "name": "activeLotteryPlayers",
      "outputs": [
        {
          "internalType": "bool",
          "name": "",
          "type": "bool"
        }
      ],
      "stateMutability": "view",
      "type": "function"
    },
    {
      "inputs": [],
      "name": "bet",
      "outputs": [],
      "stateMutability": "nonpayable",
      "type": "function"
    },
    {
      "inputs": [],
      "name": "betFee",
      "outputs": [
        {
          "internalType": "uint256",
          "name": "",
          "type": "uint256"
        }
      ],
      "stateMutability": "view",
      "type": "function"
    },
    {
      "inputs": [],
      "name": "betPrice",
      "outputs": [
        {
          "internalType": "uint256",
          "name": "",
          "type": "uint256"
        }
      ],
      "stateMutability": "view",
      "type": "function"
    },
    {
      "inputs": [],
      "name": "collectFees",
      "outputs": [],
      "stateMutability": "nonpayable",
      "type": "function"
    },
    {
      "inputs": [],
      "name": "currentLotteryPayoutPool",
      "outputs": [
        {
          "internalType": "uint256",
          "name": "",
          "type": "uint256"
        }
      ],
      "stateMutability": "view",
      "type": "function"
    },
    {
      "inputs": [],
      "name": "endLottery",
      "outputs": [],
      "stateMutability": "nonpayable",
      "type": "function"
    },
    {
      "inputs": [],
      "name": "feeCollection",
      "outputs": [
        {
          "internalType": "uint256",
          "name": "",
          "type": "uint256"
        }
      ],
      "stateMutability": "view",
      "type": "function"
    },
    {
      "inputs": [],
      "name": "latestLotteryWinner",
      "outputs": [
        {
          "internalType": "address",
          "name": "",
          "type": "address"
        }
      ],
      "stateMutability": "view",
      "type": "function"
    },
    {
      "inputs": [],
      "name": "lotteryClosingEpochInSeconds",
      "outputs": [
        {
          "internalType": "uint256",
          "name": "",
          "type": "uint256"
        }
      ],
      "stateMutability": "view",
      "type": "function"
    },
    {
      "inputs": [],
      "name": "lotteryOpen",
      "outputs": [
        {
          "internalType": "bool",
          "name": "",
          "type": "bool"
        }
      ],
      "stateMutability": "view",
      "type": "function"
    },
    {
      "inputs": [
        {
          "internalType": "uint256",
          "name": "",
          "type": "uint256"
        }
      ],
      "name": "lotteryPlayers",
      "outputs": [
        {
          "internalType": "address",
          "name": "",
          "type": "address"
        }
      ],
      "stateMutability": "view",
      "type": "function"
    },
    {
      "inputs": [],
      "name": "lotteryTxnToken",
      "outputs": [
        {
          "internalType": "contract LotteryToken",
          "name": "",
          "type": "address"
        }
      ],
      "stateMutability": "view",
      "type": "function"
    },
    {
      "inputs": [],
      "name": "maxPlayersPerRoll",
      "outputs": [
        {
          "internalType": "uint256",
          "name": "",
          "type": "uint256"
        }
      ],
      "stateMutability": "view",
      "type": "function"
    },
    {
      "inputs": [],
      "name": "owner",
      "outputs": [
        {
          "internalType": "address",
          "name": "",
          "type": "address"
        }
      ],
      "stateMutability": "view",
      "type": "function"
    },
    {
      "inputs": [],
      "name": "renounceOwnership",
      "outputs": [],
      "stateMutability": "nonpayable",
      "type": "function"
    },
    {
      "inputs": [
        {
          "internalType": "address",
          "name": "",
          "type": "address"
        }
      ],
      "name": "requestedTokenBurnAmount",
      "outputs": [
        {
          "internalType": "uint256",
          "name": "",
          "type": "uint256"
        }
      ],
      "stateMutability": "view",
      "type": "function"
    },
    {
      "inputs": [],
      "name": "sellLotteryTokens",
      "outputs": [],
      "stateMutability": "payable",
      "type": "function"
    },
    {
      "inputs": [
        {
          "internalType": "uint256",
          "name": "_closingEpochInSeconds",
          "type": "uint256"
        },
        {
          "internalType": "uint256",
          "name": "_winningWithdrawBaseFee",
          "type": "uint256"
        }
      ],
      "name": "startLottery",
      "outputs": [],
      "stateMutability": "nonpayable",
      "type": "function"
    },
    {
      "inputs": [
        {
          "internalType": "uint256",
          "name": "_burnAmount",
          "type": "uint256"
        }
      ],
      "name": "trackLatestBurn",
      "outputs": [],
      "stateMutability": "nonpayable",
      "type": "function"
    },
    {
      "inputs": [
        {
          "internalType": "address",
          "name": "newOwner",
          "type": "address"
        }
      ],
      "name": "transferOwnership",
      "outputs": [],
      "stateMutability": "nonpayable",
      "type": "function"
    },
    {
      "inputs": [
        {
          "internalType": "address",
          "name": "",
          "type": "address"
        }
      ],
      "name": "winningStash",
      "outputs": [
        {
          "internalType": "uint256",
          "name": "",
          "type": "uint256"
        }
      ],
      "stateMutability": "view",
      "type": "function"
    },
    {
      "inputs": [],
      "name": "winningWithdrawBaseFee",
      "outputs": [
        {
          "internalType": "uint256",
          "name": "",
          "type": "uint256"
        }
      ],
      "stateMutability": "view",
      "type": "function"
    },
    {
      "inputs": [],
      "name": "withdrawLastBurnToEther",
      "outputs": [],
      "stateMutability": "nonpayable",
      "type": "function"
    },
    {
      "inputs": [
        {
          "internalType": "uint256",
          "name": "_winningAmount",
          "type": "uint256"
        },
        {
          "internalType": "uint256",
          "name": "_feeToDeduct",
          "type": "uint256"
        }
      ],
      "name": "withdrawWinning",
      "outputs": [],
      "stateMutability": "nonpayable",
      "type": "function"
    },
    {
      "stateMutability": "payable",
      "type": "receive"
    }
  ],
  "bytecode": "0x60806040523480156200001157600080fd5b50604051620024ea380380620024ea8339810160408190526200003491620001fb565b6200003f33620000d0565b60048490556005839055600e6003553360009081526007602052604090819020805460ff1916600117905551829082906200007a9062000120565b62000087929190620002a7565b604051809103906000f080158015620000a4573d6000803e3d6000fd5b50600680546001600160a01b0319166001600160a01b039290921691909117905550620002d992505050565b600080546001600160a01b038381166001600160a01b0319831681178455604051919092169283917f8be0079c531659141344cd1fd0a4f28419497f9722a3daafe3b4186f6b6457e09190a35050565b61107f806200146b83390190565b634e487b7160e01b600052604160045260246000fd5b60005b838110156200016157818101518382015260200162000147565b50506000910152565b600082601f8301126200017c57600080fd5b81516001600160401b03808211156200019957620001996200012e565b604051601f8301601f19908116603f01168101908282118183101715620001c457620001c46200012e565b81604052838152866020858801011115620001de57600080fd5b620001f184602083016020890162000144565b9695505050505050565b600080600080608085870312156200021257600080fd5b84516020860151604087015191955093506001600160401b03808211156200023957600080fd5b62000247888389016200016a565b935060608701519150808211156200025e57600080fd5b506200026d878288016200016a565b91505092959194509250565b600081518084526200029381602086016020860162000144565b601f01601f19169290920160200192915050565b604081526000620002bc604083018562000279565b8281036020840152620002d0818562000279565b95945050505050565b61118280620002e96000396000f3fe60806040526004361061016a5760003560e01c80638da5cb5b116100d1578063cfd8a1751161008a578063f2fde38b11610064578063f2fde38b146103e4578063f6b0697314610404578063f9b93a1d14610431578063fa4207321461045157610171565b8063cfd8a17514610398578063e04ebc8c146103ae578063edbcfdf2146103ce57610171565b80638da5cb5b146103005780638f2b5b2a1461031e578063ab6c21ae14610334578063c60c4ae914610354578063c780d8fc1461036e578063c87965721461038357610171565b8063586def3611610123578063586def361461023f5780636dce2e2c146102555780636e8d44511461025d578063715018a614610295578063752be008146102aa578063841e6ce9146102ea57610171565b80630687a5cb1461017f57806311610c25146101bf5780631593a8c7146101d4578063231317a6146101e957806329ac818c146101ff5780633cd232151461021f57610171565b3661017157005b34801561017d57600080fd5b005b34801561018b57600080fd5b506101ac61019a366004610fc2565b600c6020526000908152604090205481565b6040519081526020015b60405180910390f35b3480156101cb57600080fd5b5061017d610467565b3480156101e057600080fd5b5061017d610697565b3480156101f557600080fd5b506101ac60035481565b34801561020b57600080fd5b5061017d61021a366004610ff2565b6107db565b34801561022b57600080fd5b5061017d61023a36600461100b565b610821565b34801561024b57600080fd5b506101ac60015481565b61017d61096e565b34801561026957600080fd5b50600b5461027d906001600160a01b031681565b6040516001600160a01b0390911681526020016101b6565b3480156102a157600080fd5b5061017d6109ee565b3480156102b657600080fd5b506102da6102c5366004610fc2565b60076020526000908152604090205460ff1681565b60405190151581526020016101b6565b3480156102f657600080fd5b506101ac60055481565b34801561030c57600080fd5b506000546001600160a01b031661027d565b34801561032a57600080fd5b506101ac600d5481565b34801561034057600080fd5b5061017d61034f36600461100b565b610a02565b34801561036057600080fd5b506002546102da9060ff1681565b34801561037a57600080fd5b5061017d610ad9565b34801561038f57600080fd5b5061017d610be0565b3480156103a457600080fd5b506101ac60045481565b3480156103ba57600080fd5b5060065461027d906001600160a01b031681565b3480156103da57600080fd5b506101ac600f5481565b3480156103f057600080fd5b5061017d6103ff366004610fc2565b610d0e565b34801561041057600080fd5b506101ac61041f366004610fc2565b60116020526000908152604090205481565b34801561043d57600080fd5b5061027d61044c366004610ff2565b610d84565b34801561045d57600080fd5b506101ac600a5481565b60025460ff166104925760405162461bcd60e51b81526004016104899061102d565b60405180910390fd5b60015442106104e35760405162461bcd60e51b815260206004820152601f60248201527f4c6f74746572793a2042657474696e672077696e646f7720636c6f73656421006044820152606401610489565b6000546001600160a01b031633036105485760405162461bcd60e51b815260206004820152602260248201527f4c6f74746572793a204f776e6572206e6f7420616c6c6f77656420746f206265604482015261742160f01b6064820152608401610489565b60035460085411156105b85760405162461bcd60e51b815260206004820152603360248201527f4c6f74746572793a2043757272656e74206c6f747465727920706c61796572206044820152726361706163697479206d61786564206f75742160681b6064820152608401610489565b6105c133610dae565b600454600a60008282546105d5919061107a565b9091555050600554600f80546000906105ef90849061107a565b90915550506006546005546004546001600160a01b03909216916323b872dd913391309161061c9161107a565b6040516001600160e01b031960e086901b1681526001600160a01b03938416600482015292909116602483015260448201526064016020604051808303816000875af1158015610670573d6000803e3d6000fd5b505050506040513d601f19601f820116820180604052508101906106949190611093565b50565b60025460ff166106b95760405162461bcd60e51b81526004016104899061102d565b60015442116107165760405162461bcd60e51b815260206004820152602360248201527f4c6f74746572793a2042657474696e672077696e646f77207374696c6c206f70604482015262656e2160e81b6064820152608401610489565b3360009081526007602052604090205460ff16151560011461074a5760405162461bcd60e51b8152600401610489906110b5565b6008544490156107c4576008805461076290836110fb565b815481106107725761077261111d565b6000918252602080832090910154600b80546001600160a01b0319166001600160a01b039092169182179055600a54908352600c909152604082208054919290916107be90849061107a565b90915550505b6000600a556002805460ff19169055610694610eac565b3360009081526007602052604090205460ff16151560011461080f5760405162461bcd60e51b8152600401610489906110b5565b33600090815260116020526040902055565b3360009081526007602052604090205460ff1615156001146108555760405162461bcd60e51b8152600401610489906110b5565b61085f818361107a565b336000908152600c6020526040902054146108cd5760405162461bcd60e51b815260206004820152602860248201527f4c6f74746572793a2057696e6e696e67206665652063616c63756c6174696f6e604482015267206661696c65642160c01b6064820152608401610489565b80600f60008282546108df919061107a565b909155505060065460405163a9059cbb60e01b8152336004820152602481018490526001600160a01b039091169063a9059cbb906044016020604051808303816000875af1158015610935573d6000803e3d6000fd5b505050506040513d601f19601f820116820180604052508101906109599190611093565b5050336000908152600c602052604081205550565b3360008181526007602052604090819020805460ff1916600117905560065490516340c10f1960e01b815260048101929092523460248301526001600160a01b0316906340c10f1990604401600060405180830381600087803b1580156109d457600080fd5b505af11580156109e8573d6000803e3d6000fd5b50505050565b6109f6610f18565b610a006000610f72565b565b610a0a610f18565b60025460ff1615610a5d5760405162461bcd60e51b815260206004820152601f60248201527f4c6f74746572793a20416c7265616479206f70656e20666f72206265747321006044820152606401610489565b428211610ac15760405162461bcd60e51b815260206004820152602c60248201527f4c6f74746572793a20436c6f73696e672074696d65206d75737420626520696e60448201526b20746865206675747572652160a01b6064820152608401610489565b60019182556002805460ff1916909217909155600d55565b3360009081526007602052604090205460ff161515600114610b0d5760405162461bcd60e51b8152600401610489906110b5565b33600090815260116020526040902054670de0b6b3a764000010610b835760405162461bcd60e51b815260206004820152602760248201527f4c6f74746572793a20496e73756666696369656e74206275726e20746f2077696044820152667468647261772160c81b6064820152608401610489565b33600081815260116020908152604080832080546012909352818420928355839055905490516108fc82150292818181858888f19350505050158015610bcd573d6000803e3d6000fd5b5033600090815260126020526040812055565b610be8610f18565b6611c37937e08000600f5411610c665760405162461bcd60e51b815260206004820152603860248201527f4c6f74746572793a2066656520746f6b656e7320746f20626520636f6c6c656360448201527f74656420746f6f206c65737320746f20636f6c6c6563742100000000000000006064820152608401610489565b600f8054601055600090556006546001600160a01b031663a9059cbb610c946000546001600160a01b031690565b6010546040516001600160e01b031960e085901b1681526001600160a01b03909216600483015260248201526044016020604051808303816000875af1158015610ce2573d6000803e3d6000fd5b505050506040513d601f19601f82011682018060405250810190610d069190611093565b506000601055565b610d16610f18565b6001600160a01b038116610d7b5760405162461bcd60e51b815260206004820152602660248201527f4f776e61626c653a206e6577206f776e657220697320746865207a65726f206160448201526564647265737360d01b6064820152608401610489565b61069481610f72565b60088181548110610d9457600080fd5b6000918252602090912001546001600160a01b0316905081565b60025460ff16610dd05760405162461bcd60e51b81526004016104899061102d565b6001544210610e215760405162461bcd60e51b815260206004820152601f60248201527f4c6f74746572793a2042657474696e672077696e646f7720636c6f73656421006044820152606401610489565b6001600160a01b03811660009081526009602052604081205460ff1615159003610694576008805460018181019092557ff3f7a9fe364faab93b216da50a3214154f22a0a2b415b23a84c8169e8b636ee30180546001600160a01b0384166001600160a01b031990911681179091556000908152600960205260409020805460ff1916909117905550565b60005b6008548110156106945760006007600060088481548110610ed257610ed261111d565b6000918252602080832091909101546001600160a01b031683528201929092526040019020805460ff191691151591909117905580610f1081611133565b915050610eaf565b6000546001600160a01b03163314610a005760405162461bcd60e51b815260206004820181905260248201527f4f776e61626c653a2063616c6c6572206973206e6f7420746865206f776e65726044820152606401610489565b600080546001600160a01b038381166001600160a01b0319831681178455604051919092169283917f8be0079c531659141344cd1fd0a4f28419497f9722a3daafe3b4186f6b6457e09190a35050565b600060208284031215610fd457600080fd5b81356001600160a01b0381168114610feb57600080fd5b9392505050565b60006020828403121561100457600080fd5b5035919050565b6000806040838503121561101e57600080fd5b50508035926020909101359150565b6020808252601f908201527f4c6f74746572793a204e6f7420796574206f70656e20666f7220626574732100604082015260600190565b634e487b7160e01b600052601160045260246000fd5b8082018082111561108d5761108d611064565b92915050565b6000602082840312156110a557600080fd5b81518015158114610feb57600080fd5b60208082526026908201527f4c6f74746572793a20596f7520617265206e6f7420616e2061637469766520706040820152656c617965722160d01b606082015260800190565b60008261111857634e487b7160e01b600052601260045260246000fd5b500690565b634e487b7160e01b600052603260045260246000fd5b60006001820161114557611145611064565b506001019056fea2646970667358221220be20ee486ff3d615e15e2bbe7314badf767c27d9e29f1cd47ee93c0ef248099964736f6c6343000811003360806040523480156200001157600080fd5b506040516200107f3803806200107f833981016040819052620000349162000193565b818160036200004483826200028c565b5060046200005382826200028c565b505050620000706200006a6200007860201b60201c565b6200007c565b505062000358565b3390565b600580546001600160a01b038381166001600160a01b0319831681179093556040519116919082907f8be0079c531659141344cd1fd0a4f28419497f9722a3daafe3b4186f6b6457e090600090a35050565b634e487b7160e01b600052604160045260246000fd5b600082601f830112620000f657600080fd5b81516001600160401b0380821115620001135762000113620000ce565b604051601f8301601f19908116603f011681019082821181831017156200013e576200013e620000ce565b816040528381526020925086838588010111156200015b57600080fd5b600091505b838210156200017f578582018301518183018401529082019062000160565b600093810190920192909252949350505050565b60008060408385031215620001a757600080fd5b82516001600160401b0380821115620001bf57600080fd5b620001cd86838701620000e4565b93506020850151915080821115620001e457600080fd5b50620001f385828601620000e4565b9150509250929050565b600181811c908216806200021257607f821691505b6020821081036200023357634e487b7160e01b600052602260045260246000fd5b50919050565b601f8211156200028757600081815260208120601f850160051c81016020861015620002625750805b601f850160051c820191505b8181101562000283578281556001016200026e565b5050505b505050565b81516001600160401b03811115620002a857620002a8620000ce565b620002c081620002b98454620001fd565b8462000239565b602080601f831160018114620002f85760008415620002df5750858301515b600019600386901b1c1916600185901b17855562000283565b600085815260208120601f198616915b82811015620003295788860151825594840194600190910190840162000308565b5085821015620003485787850151600019600388901b60f8161c191681555b5050505050600190811b01905550565b610d1780620003686000396000f3fe608060405234801561001057600080fd5b506004361061010b5760003560e01c806370a08231116100a257806395d89b411161007157806395d89b411461021f578063a457c2d714610227578063a9059cbb1461023a578063dd62ed3e1461024d578063f2fde38b1461026057600080fd5b806370a08231146101c0578063715018a6146101e957806379cc6790146101f15780638da5cb5b1461020457600080fd5b8063313ce567116100de578063313ce56714610176578063395093511461018557806340c10f191461019857806342966c68146101ad57600080fd5b806306fdde0314610110578063095ea7b31461012e57806318160ddd1461015157806323b872dd14610163575b600080fd5b610118610273565b6040516101259190610b2d565b60405180910390f35b61014161013c366004610b97565b610305565b6040519015158152602001610125565b6002545b604051908152602001610125565b610141610171366004610bc1565b61031f565b60405160128152602001610125565b610141610193366004610b97565b610343565b6101ab6101a6366004610b97565b610365565b005b6101ab6101bb366004610bfd565b61037b565b6101556101ce366004610c16565b6001600160a01b031660009081526020819052604090205490565b6101ab610388565b6101ab6101ff366004610b97565b61039c565b6005546040516001600160a01b039091168152602001610125565b6101186103b1565b610141610235366004610b97565b6103c0565b610141610248366004610b97565b610440565b61015561025b366004610c38565b61044e565b6101ab61026e366004610c16565b610479565b60606003805461028290610c6b565b80601f01602080910402602001604051908101604052809291908181526020018280546102ae90610c6b565b80156102fb5780601f106102d0576101008083540402835291602001916102fb565b820191906000526020600020905b8154815290600101906020018083116102de57829003601f168201915b5050505050905090565b6000336103138185856104ef565b60019150505b92915050565b60003361032d858285610614565b61033885858561068e565b506001949350505050565b600033610313818585610356838361044e565b6103609190610cbb565b6104ef565b61036d61085c565b61037782826108b6565b5050565b6103853382610995565b50565b61039061085c565b61039a6000610adb565b565b6103a7823383610614565b6103778282610995565b60606004805461028290610c6b565b600033816103ce828661044e565b9050838110156104335760405162461bcd60e51b815260206004820152602560248201527f45524332303a2064656372656173656420616c6c6f77616e63652062656c6f77604482015264207a65726f60d81b60648201526084015b60405180910390fd5b61033882868684036104ef565b60003361031381858561068e565b6001600160a01b03918216600090815260016020908152604080832093909416825291909152205490565b61048161085c565b6001600160a01b0381166104e65760405162461bcd60e51b815260206004820152602660248201527f4f776e61626c653a206e6577206f776e657220697320746865207a65726f206160448201526564647265737360d01b606482015260840161042a565b61038581610adb565b6001600160a01b0383166105515760405162461bcd60e51b8152602060048201526024808201527f45524332303a20617070726f76652066726f6d20746865207a65726f206164646044820152637265737360e01b606482015260840161042a565b6001600160a01b0382166105b25760405162461bcd60e51b815260206004820152602260248201527f45524332303a20617070726f766520746f20746865207a65726f206164647265604482015261737360f01b606482015260840161042a565b6001600160a01b0383811660008181526001602090815260408083209487168084529482529182902085905590518481527f8c5be1e5ebec7d5bd14f71427d1e84f3dd0314c0f7b2291e5b200ac8c7c3b92591015b60405180910390a3505050565b6000610620848461044e565b90506000198114610688578181101561067b5760405162461bcd60e51b815260206004820152601d60248201527f45524332303a20696e73756666696369656e7420616c6c6f77616e6365000000604482015260640161042a565b61068884848484036104ef565b50505050565b6001600160a01b0383166106f25760405162461bcd60e51b815260206004820152602560248201527f45524332303a207472616e736665722066726f6d20746865207a65726f206164604482015264647265737360d81b606482015260840161042a565b6001600160a01b0382166107545760405162461bcd60e51b815260206004820152602360248201527f45524332303a207472616e7366657220746f20746865207a65726f206164647260448201526265737360e81b606482015260840161042a565b6001600160a01b038316600090815260208190526040902054818110156107cc5760405162461bcd60e51b815260206004820152602660248201527f45524332303a207472616e7366657220616d6f756e7420657863656564732062604482015265616c616e636560d01b606482015260840161042a565b6001600160a01b03808516600090815260208190526040808220858503905591851681529081208054849290610803908490610cbb565b92505081905550826001600160a01b0316846001600160a01b03167fddf252ad1be2c89b69c2b068fc378daa952ba7f163c4a11628f55a4df523b3ef8460405161084f91815260200190565b60405180910390a3610688565b6005546001600160a01b0316331461039a5760405162461bcd60e51b815260206004820181905260248201527f4f776e61626c653a2063616c6c6572206973206e6f7420746865206f776e6572604482015260640161042a565b6001600160a01b03821661090c5760405162461bcd60e51b815260206004820152601f60248201527f45524332303a206d696e7420746f20746865207a65726f206164647265737300604482015260640161042a565b806002600082825461091e9190610cbb565b90915550506001600160a01b0382166000908152602081905260408120805483929061094b908490610cbb565b90915550506040518181526001600160a01b038316906000907fddf252ad1be2c89b69c2b068fc378daa952ba7f163c4a11628f55a4df523b3ef9060200160405180910390a35050565b6001600160a01b0382166109f55760405162461bcd60e51b815260206004820152602160248201527f45524332303a206275726e2066726f6d20746865207a65726f206164647265736044820152607360f81b606482015260840161042a565b6001600160a01b03821660009081526020819052604090205481811015610a695760405162461bcd60e51b815260206004820152602260248201527f45524332303a206275726e20616d6f756e7420657863656564732062616c616e604482015261636560f01b606482015260840161042a565b6001600160a01b0383166000908152602081905260408120838303905560028054849290610a98908490610cce565b90915550506040518281526000906001600160a01b038516907fddf252ad1be2c89b69c2b068fc378daa952ba7f163c4a11628f55a4df523b3ef90602001610607565b600580546001600160a01b038381166001600160a01b0319831681179093556040519116919082907f8be0079c531659141344cd1fd0a4f28419497f9722a3daafe3b4186f6b6457e090600090a35050565b600060208083528351808285015260005b81811015610b5a57858101830151858201604001528201610b3e565b506000604082860101526040601f19601f8301168501019250505092915050565b80356001600160a01b0381168114610b9257600080fd5b919050565b60008060408385031215610baa57600080fd5b610bb383610b7b565b946020939093013593505050565b600080600060608486031215610bd657600080fd5b610bdf84610b7b565b9250610bed60208501610b7b565b9150604084013590509250925092565b600060208284031215610c0f57600080fd5b5035919050565b600060208284031215610c2857600080fd5b610c3182610b7b565b9392505050565b60008060408385031215610c4b57600080fd5b610c5483610b7b565b9150610c6260208401610b7b565b90509250929050565b600181811c90821680610c7f57607f821691505b602082108103610c9f57634e487b7160e01b600052602260045260246000fd5b50919050565b634e487b7160e01b600052601160045260246000fd5b8082018082111561031957610319610ca5565b8181038181111561031957610319610ca556fea2646970667358221220fdb7f14b389124710cb1bf4bc450ba4e6899f32bc86bd011b55caa71be51294264736f6c63430008110033",
  "linkReferences": {},
  "deployedLinkReferences": {}
}